{
  "transactions": [
    {
      "hash": "0xb564164d6c8b11258e2cf61d8b46e03a2e2b9a7116395500ab9e0cb04d33fa55",
      "transactionType": "CALL",
      "contractName": null,
      "contractAddress": "0x8901dc6232c767ae7e974aeea97284722905704a",
      "function": "setBuySellFeeSettings(uint256[4])",
      "arguments": [
        "[1, 1, 6900, 1000000000000000000]"
      ],
      "transaction": {
        "from": "0x6c8fcdeb117a1d40cd2c2eb6ecda58793fd636b1",
        "to": "0x8901dc6232c767ae7e974aeea97284722905704a",
        "gas": "0x28379",
        "value": "0x0",
        "input": "0xd968fc77000000000000000000000000000000000000000000000000000000000000000100000000000000000000000000000000000000000000000000000000000000010000000000000000000000000000000000000000000000000000000000001af40000000000000000000000000000000000000000000000000de0b6b3a7640000",
        "nonce": "0x85",
        "chainId": "0xc352"
      },
      "additionalContracts": [],
      "isFixedGasLimit": false
    }
  ],
  "receipts": [
    {
      "status": "0x1",
      "cumulativeGasUsed": "0x1d1de",
      "logs": [],
      "logsBloom": "0x00000000000000000000000000000000000000000000000000000000000000000000000000000000000000000000000000000000000000000000000000000000000000000000000000000000000000000000000000000000000000000000000000000000000000000000000000000000000000000000000000000000000000000000000000000000000000000000000000000000000000000000000000000000000000000000000000000000000000000000000000000000000000000000000000000000000000000000000000000000000000000000000000000000000000000000000000000000000000000000000000000000000000000000000000000000",
      "type": "0x2",
      "transactionHash": "0xb564164d6c8b11258e2cf61d8b46e03a2e2b9a7116395500ab9e0cb04d33fa55",
      "transactionIndex": "0x0",
      "blockHash": "0xf23178e190923b321abe53f4c4716f488d1787bdd9ce32134f8dce83ee5e039c",
      "blockNumber": "0x11f6a2e",
      "gasUsed": "0x1d1de",
      "effectiveGasPrice": "0x1",
      "from": "0x6c8fcdeb117a1d40cd2c2eb6ecda58793fd636b1",
      "to": "0x8901dc6232c767ae7e974aeea97284722905704a",
      "contractAddress": null
    }
  ],
  "libraries": [],
  "pending": [],
  "returns": {},
  "timestamp": 1746111819,
  "chain": 50002,
  "commit": "0cfdc21"
}